{
  "contractName": "SocialNetwork",
  "abi": [
    {
      "inputs": [],
      "stateMutability": "nonpayable",
      "type": "constructor"
    },
    {
      "anonymous": false,
      "inputs": [
        {
          "indexed": true,
          "internalType": "address",
          "name": "owner",
          "type": "address"
        },
        {
          "indexed": true,
          "internalType": "address",
          "name": "spender",
          "type": "address"
        },
        {
          "indexed": false,
          "internalType": "uint256",
          "name": "value",
          "type": "uint256"
        }
      ],
      "name": "Approval",
      "type": "event"
    },
    {
      "anonymous": false,
      "inputs": [
        {
          "indexed": false,
          "internalType": "uint256",
          "name": "id",
          "type": "uint256"
        },
        {
          "indexed": false,
          "internalType": "string",
          "name": "content",
          "type": "string"
        },
        {
          "indexed": false,
          "internalType": "uint256",
          "name": "tipAmount",
          "type": "uint256"
        },
        {
          "indexed": false,
          "internalType": "uint256",
          "name": "vote",
          "type": "uint256"
        },
        {
          "indexed": false,
          "internalType": "address payable",
          "name": "author",
          "type": "address"
        }
      ],
      "name": "PostCreate",
      "type": "event"
    },
    {
      "anonymous": false,
      "inputs": [
        {
          "indexed": false,
          "internalType": "uint256",
          "name": "id",
          "type": "uint256"
        },
        {
          "indexed": false,
          "internalType": "string",
          "name": "content",
          "type": "string"
        },
        {
          "indexed": false,
          "internalType": "uint256",
          "name": "tipAmount",
          "type": "uint256"
        },
        {
          "indexed": false,
          "internalType": "uint256",
          "name": "vote",
          "type": "uint256"
        },
        {
          "indexed": false,
          "internalType": "address payable",
          "name": "author",
          "type": "address"
        }
      ],
      "name": "PostTipped",
      "type": "event"
    },
    {
      "anonymous": false,
      "inputs": [
        {
          "indexed": true,
          "internalType": "address",
          "name": "from",
          "type": "address"
        },
        {
          "indexed": true,
          "internalType": "address",
          "name": "to",
          "type": "address"
        },
        {
          "indexed": false,
          "internalType": "uint256",
          "name": "value",
          "type": "uint256"
        }
      ],
      "name": "Transfer",
      "type": "event"
    },
    {
      "anonymous": false,
      "inputs": [
        {
          "indexed": false,
          "internalType": "uint256",
          "name": "id",
          "type": "uint256"
        },
        {
          "indexed": false,
          "internalType": "address",
          "name": "authorPost",
          "type": "address"
        },
        {
          "indexed": false,
          "internalType": "address",
          "name": "voter",
          "type": "address"
        }
      ],
      "name": "Vote",
      "type": "event"
    },
    {
      "inputs": [
        {
          "internalType": "address",
          "name": "",
          "type": "address"
        },
        {
          "internalType": "uint256",
          "name": "",
          "type": "uint256"
        }
      ],
      "name": "addressVotes",
      "outputs": [
        {
          "internalType": "bool",
          "name": "",
          "type": "bool"
        }
      ],
      "stateMutability": "view",
      "type": "function",
      "constant": true
    },
    {
      "inputs": [
        {
          "internalType": "address",
          "name": "owner",
          "type": "address"
        },
        {
          "internalType": "address",
          "name": "spender",
          "type": "address"
        }
      ],
      "name": "allowance",
      "outputs": [
        {
          "internalType": "uint256",
          "name": "",
          "type": "uint256"
        }
      ],
      "stateMutability": "view",
      "type": "function",
      "constant": true
    },
    {
      "inputs": [
        {
          "internalType": "address",
          "name": "spender",
          "type": "address"
        },
        {
          "internalType": "uint256",
          "name": "amount",
          "type": "uint256"
        }
      ],
      "name": "approve",
      "outputs": [
        {
          "internalType": "bool",
          "name": "",
          "type": "bool"
        }
      ],
      "stateMutability": "nonpayable",
      "type": "function"
    },
    {
      "inputs": [
        {
          "internalType": "address",
          "name": "account",
          "type": "address"
        }
      ],
      "name": "balanceOf",
      "outputs": [
        {
          "internalType": "uint256",
          "name": "",
          "type": "uint256"
        }
      ],
      "stateMutability": "view",
      "type": "function",
      "constant": true
    },
    {
      "inputs": [],
      "name": "decimals",
      "outputs": [
        {
          "internalType": "uint8",
          "name": "",
          "type": "uint8"
        }
      ],
      "stateMutability": "view",
      "type": "function",
      "constant": true
    },
    {
      "inputs": [
        {
          "internalType": "address",
          "name": "spender",
          "type": "address"
        },
        {
          "internalType": "uint256",
          "name": "subtractedValue",
          "type": "uint256"
        }
      ],
      "name": "decreaseAllowance",
      "outputs": [
        {
          "internalType": "bool",
          "name": "",
          "type": "bool"
        }
      ],
      "stateMutability": "nonpayable",
      "type": "function"
    },
    {
      "inputs": [
        {
          "internalType": "address",
          "name": "spender",
          "type": "address"
        },
        {
          "internalType": "uint256",
          "name": "addedValue",
          "type": "uint256"
        }
      ],
      "name": "increaseAllowance",
      "outputs": [
        {
          "internalType": "bool",
          "name": "",
          "type": "bool"
        }
      ],
      "stateMutability": "nonpayable",
      "type": "function"
    },
    {
      "inputs": [],
      "name": "name",
      "outputs": [
        {
          "internalType": "string",
          "name": "",
          "type": "string"
        }
      ],
      "stateMutability": "view",
      "type": "function",
      "constant": true
    },
    {
      "inputs": [],
      "name": "postCount",
      "outputs": [
        {
          "internalType": "uint256",
          "name": "",
          "type": "uint256"
        }
      ],
      "stateMutability": "view",
      "type": "function",
      "constant": true
    },
    {
      "inputs": [
        {
          "internalType": "uint256",
          "name": "",
          "type": "uint256"
        }
      ],
      "name": "posts",
      "outputs": [
        {
          "internalType": "uint256",
          "name": "id",
          "type": "uint256"
        },
        {
          "internalType": "string",
          "name": "content",
          "type": "string"
        },
        {
          "internalType": "uint256",
          "name": "tipAmount",
          "type": "uint256"
        },
        {
          "internalType": "uint256",
          "name": "vote",
          "type": "uint256"
        },
        {
          "internalType": "address payable",
          "name": "author",
          "type": "address"
        }
      ],
      "stateMutability": "view",
      "type": "function",
      "constant": true
    },
    {
      "inputs": [],
      "name": "symbol",
      "outputs": [
        {
          "internalType": "string",
          "name": "",
          "type": "string"
        }
      ],
      "stateMutability": "view",
      "type": "function",
      "constant": true
    },
    {
      "inputs": [],
      "name": "totalSupply",
      "outputs": [
        {
          "internalType": "uint256",
          "name": "",
          "type": "uint256"
        }
      ],
      "stateMutability": "view",
      "type": "function",
      "constant": true
    },
    {
      "inputs": [
        {
          "internalType": "address",
          "name": "to",
          "type": "address"
        },
        {
          "internalType": "uint256",
          "name": "amount",
          "type": "uint256"
        }
      ],
      "name": "transfer",
      "outputs": [
        {
          "internalType": "bool",
          "name": "",
          "type": "bool"
        }
      ],
      "stateMutability": "nonpayable",
      "type": "function"
    },
    {
      "inputs": [
        {
          "internalType": "address",
          "name": "from",
          "type": "address"
        },
        {
          "internalType": "address",
          "name": "to",
          "type": "address"
        },
        {
          "internalType": "uint256",
          "name": "amount",
          "type": "uint256"
        }
      ],
      "name": "transferFrom",
      "outputs": [
        {
          "internalType": "bool",
          "name": "",
          "type": "bool"
        }
      ],
      "stateMutability": "nonpayable",
      "type": "function"
    },
    {
      "inputs": [
        {
          "internalType": "string",
          "name": "_content",
          "type": "string"
        }
      ],
      "name": "createPost",
      "outputs": [],
      "stateMutability": "nonpayable",
      "type": "function"
    },
    {
      "inputs": [
        {
          "internalType": "uint256",
          "name": "_id",
          "type": "uint256"
        }
      ],
      "name": "tipPost",
      "outputs": [],
      "stateMutability": "payable",
      "type": "function",
      "payable": true
    },
    {
      "inputs": [
        {
          "internalType": "uint256",
          "name": "_id",
          "type": "uint256"
        }
      ],
      "name": "votePost",
      "outputs": [],
      "stateMutability": "nonpayable",
      "type": "function"
    }
  ],
  "bytecode": "0x608060405260006007553480156200001657600080fd5b506040518060400160405280600d81526020017f536f6369616c4e6574776f726b000000000000000000000000000000000000008152506040518060400160405280600381526020017f53434300000000000000000000000000000000000000000000000000000000008152508160039081620000949190620003b7565b508060049081620000a69190620003b7565b5050506040518060400160405280600d81526020017f536f6369616c4e6574776f726b0000000000000000000000000000000000000081525060059081620000ef9190620003b7565b506040518060400160405280600381526020017f534343000000000000000000000000000000000000000000000000000000000081525060069081620001369190620003b7565b506200049e565b600081519050919050565b7f4e487b7100000000000000000000000000000000000000000000000000000000600052604160045260246000fd5b7f4e487b7100000000000000000000000000000000000000000000000000000000600052602260045260246000fd5b60006002820490506001821680620001bf57607f821691505b602082108103620001d557620001d462000177565b5b50919050565b60008190508160005260206000209050919050565b60006020601f8301049050919050565b600082821b905092915050565b6000600883026200023f7fffffffffffffffffffffffffffffffffffffffffffffffffffffffffffffffff8262000200565b6200024b868362000200565b95508019841693508086168417925050509392505050565b6000819050919050565b6000819050919050565b600062000298620002926200028c8462000263565b6200026d565b62000263565b9050919050565b6000819050919050565b620002b48362000277565b620002cc620002c3826200029f565b8484546200020d565b825550505050565b600090565b620002e3620002d4565b620002f0818484620002a9565b505050565b5b8181101562000318576200030c600082620002d9565b600181019050620002f6565b5050565b601f82111562000367576200033181620001db565b6200033c84620001f0565b810160208510156200034c578190505b620003646200035b85620001f0565b830182620002f5565b50505b505050565b600082821c905092915050565b60006200038c600019846008026200036c565b1980831691505092915050565b6000620003a7838362000379565b9150826002028217905092915050565b620003c2826200013d565b67ffffffffffffffff811115620003de57620003dd62000148565b5b620003ea8254620001a6565b620003f78282856200031c565b600060209050601f8311600181146200042f57600084156200041a578287015190505b62000426858262000399565b86555062000496565b601f1984166200043f86620001db565b60005b82811015620004695784890151825560018201915060208501945060208101905062000442565b8683101562000489578489015162000485601f89168262000379565b8355505b6001600288020188555050505b505050505050565b61224780620004ae6000396000f3fe6080604052600436106100fe5760003560e01c8063395093511161009557806395d89b411161006457806395d89b4114610366578063a457c2d714610391578063a9059cbb146103ce578063c7303c611461040b578063dd62ed3e14610434576100fe565b806339509351146102a757806370a08231146102e457806374d3c1f81461032157806385688d6f1461033d576100fe565b806318160ddd116100d157806318160ddd146101d757806323b872dd14610202578063313ce5671461023f57806333d516c71461026a576100fe565b806306fdde0314610103578063095ea7b31461012e5780630b1e7f831461016b57806317906c2e146101ac575b600080fd5b34801561010f57600080fd5b50610118610471565b6040516101259190611508565b60405180910390f35b34801561013a57600080fd5b50610155600480360381019061015091906115d2565b610503565b604051610162919061162d565b60405180910390f35b34801561017757600080fd5b50610192600480360381019061018d9190611648565b610526565b6040516101a39594939291906116a5565b60405180910390f35b3480156101b857600080fd5b506101c1610604565b6040516101ce91906116ff565b60405180910390f35b3480156101e357600080fd5b506101ec61060a565b6040516101f991906116ff565b60405180910390f35b34801561020e57600080fd5b506102296004803603810190610224919061171a565b610614565b604051610236919061162d565b60405180910390f35b34801561024b57600080fd5b50610254610643565b6040516102619190611789565b60405180910390f35b34801561027657600080fd5b50610291600480360381019061028c91906115d2565b61064c565b60405161029e919061162d565b60405180910390f35b3480156102b357600080fd5b506102ce60048036038101906102c991906115d2565b61067b565b6040516102db919061162d565b60405180910390f35b3480156102f057600080fd5b5061030b600480360381019061030691906117a4565b6106b2565b60405161031891906116ff565b60405180910390f35b61033b60048036038101906103369190611648565b6106fa565b005b34801561034957600080fd5b50610364600480360381019061035f9190611648565b610990565b005b34801561037257600080fd5b5061037b610ca3565b6040516103889190611508565b60405180910390f35b34801561039d57600080fd5b506103b860048036038101906103b391906115d2565b610d35565b6040516103c5919061162d565b60405180910390f35b3480156103da57600080fd5b506103f560048036038101906103f091906115d2565b610dac565b604051610402919061162d565b60405180910390f35b34801561041757600080fd5b50610432600480360381019061042d9190611906565b610dcf565b005b34801561044057600080fd5b5061045b6004803603810190610456919061194f565b610f14565b60405161046891906116ff565b60405180910390f35b606060038054610480906119be565b80601f01602080910402602001604051908101604052809291908181526020018280546104ac906119be565b80156104f95780601f106104ce576101008083540402835291602001916104f9565b820191906000526020600020905b8154815290600101906020018083116104dc57829003601f168201915b5050505050905090565b60008061050e610f9b565b905061051b818585610fa3565b600191505092915050565b600860205280600052604060002060009150905080600001549080600101805461054f906119be565b80601f016020809104026020016040519081016040528092919081815260200182805461057b906119be565b80156105c85780601f1061059d576101008083540402835291602001916105c8565b820191906000526020600020905b8154815290600101906020018083116105ab57829003601f168201915b5050505050908060020154908060030154908060040160009054906101000a900473ffffffffffffffffffffffffffffffffffffffff16905085565b60075481565b6000600254905090565b60008061061f610f9b565b905061062c85828561116c565b6106378585856111f8565b60019150509392505050565b60006012905090565b60096020528160005260406000206020528060005260406000206000915091509054906101000a900460ff1681565b600080610686610f9b565b90506106a78185856106988589610f14565b6106a29190611a1e565b610fa3565b600191505092915050565b60008060008373ffffffffffffffffffffffffffffffffffffffff1673ffffffffffffffffffffffffffffffffffffffff168152602001908152602001600020549050919050565b60008111801561070c57506007548111155b61071557600080fd5b6000600860008381526020019081526020016000206040518060a00160405290816000820154815260200160018201805461074f906119be565b80601f016020809104026020016040519081016040528092919081815260200182805461077b906119be565b80156107c85780601f1061079d576101008083540402835291602001916107c8565b820191906000526020600020905b8154815290600101906020018083116107ab57829003601f168201915b5050505050815260200160028201548152602001600382015481526020016004820160009054906101000a900473ffffffffffffffffffffffffffffffffffffffff1673ffffffffffffffffffffffffffffffffffffffff1673ffffffffffffffffffffffffffffffffffffffff1681525050905060008160800151905060008190508073ffffffffffffffffffffffffffffffffffffffff166108fc349081150290604051600060405180830381858888f19350505050158015610891573d6000803e3d6000fd5b503483604001516108a29190611a1e565b83604001818152505082600860008681526020019081526020016000206000820151816000015560208201518160010190816108de9190611bfe565b50604082015181600201556060820151816003015560808201518160040160006101000a81548173ffffffffffffffffffffffffffffffffffffffff021916908373ffffffffffffffffffffffffffffffffffffffff1602179055509050507fe3400eb5eea60aca20c5532d7566952acb86c19466e519a27daab8f7a3a404b9600754846020015185604001518660600151866040516109829594939291906116a5565b60405180910390a150505050565b6000811180156109a257506007548111155b6109ab57600080fd5b600033905060001515600960008373ffffffffffffffffffffffffffffffffffffffff1673ffffffffffffffffffffffffffffffffffffffff168152602001908152602001600020600084815260200190815260200160002060009054906101000a900460ff16151514610a1e57600080fd5b6000600860008481526020019081526020016000206040518060a001604052908160008201548152602001600182018054610a58906119be565b80601f0160208091040260200160405190810160405280929190818152602001828054610a84906119be565b8015610ad15780601f10610aa657610100808354040283529160200191610ad1565b820191906000526020600020905b815481529060010190602001808311610ab457829003601f168201915b5050505050815260200160028201548152602001600382015481526020016004820160009054906101000a900473ffffffffffffffffffffffffffffffffffffffff1673ffffffffffffffffffffffffffffffffffffffff1673ffffffffffffffffffffffffffffffffffffffff1681525050905060018160600151610b579190611a1e565b8160600181815250508060086000858152602001908152602001600020600082015181600001556020820151816001019081610b939190611bfe565b50604082015181600201556060820151816003015560808201518160040160006101000a81548173ffffffffffffffffffffffffffffffffffffffff021916908373ffffffffffffffffffffffffffffffffffffffff1602179055509050506001600960008473ffffffffffffffffffffffffffffffffffffffff1673ffffffffffffffffffffffffffffffffffffffff168152602001908152602001600020600085815260200190815260200160002060006101000a81548160ff0219169083151502179055507f02afaea33648bcd43181ececd38efc8528872eb2f1be6ceffde70163aff839698160000151826080015184604051610c9693929190611d25565b60405180910390a1505050565b606060048054610cb2906119be565b80601f0160208091040260200160405190810160405280929190818152602001828054610cde906119be565b8015610d2b5780601f10610d0057610100808354040283529160200191610d2b565b820191906000526020600020905b815481529060010190602001808311610d0e57829003601f168201915b5050505050905090565b600080610d40610f9b565b90506000610d4e8286610f14565b905083811015610d93576040517f08c379a0000000000000000000000000000000000000000000000000000000008152600401610d8a90611dce565b60405180910390fd5b610da08286868403610fa3565b60019250505092915050565b600080610db7610f9b565b9050610dc48185856111f8565b600191505092915050565b6000815111610ddd57600080fd5b60076000815480929190610df090611dee565b919050555060003390506040518060a00160405280600754815260200183815260200160008152602001600081526020018273ffffffffffffffffffffffffffffffffffffffff16815250600860006007548152602001908152602001600020600082015181600001556020820151816001019081610e6f9190611bfe565b50604082015181600201556060820151816003015560808201518160040160006101000a81548173ffffffffffffffffffffffffffffffffffffffff021916908373ffffffffffffffffffffffffffffffffffffffff1602179055509050507f5676a72eda1d2cf2f30e6792139f71315fd9bc606c2036b31e702599a089d5906007548360008085604051610f08959493929190611e71565b60405180910390a15050565b6000600160008473ffffffffffffffffffffffffffffffffffffffff1673ffffffffffffffffffffffffffffffffffffffff16815260200190815260200160002060008373ffffffffffffffffffffffffffffffffffffffff1673ffffffffffffffffffffffffffffffffffffffff16815260200190815260200160002054905092915050565b600033905090565b600073ffffffffffffffffffffffffffffffffffffffff168373ffffffffffffffffffffffffffffffffffffffff1603611012576040517f08c379a000000000000000000000000000000000000000000000000000000000815260040161100990611f3d565b60405180910390fd5b600073ffffffffffffffffffffffffffffffffffffffff168273ffffffffffffffffffffffffffffffffffffffff1603611081576040517f08c379a000000000000000000000000000000000000000000000000000000000815260040161107890611fcf565b60405180910390fd5b80600160008573ffffffffffffffffffffffffffffffffffffffff1673ffffffffffffffffffffffffffffffffffffffff16815260200190815260200160002060008473ffffffffffffffffffffffffffffffffffffffff1673ffffffffffffffffffffffffffffffffffffffff168152602001908152602001600020819055508173ffffffffffffffffffffffffffffffffffffffff168373ffffffffffffffffffffffffffffffffffffffff167f8c5be1e5ebec7d5bd14f71427d1e84f3dd0314c0f7b2291e5b200ac8c7c3b9258360405161115f91906116ff565b60405180910390a3505050565b60006111788484610f14565b90507fffffffffffffffffffffffffffffffffffffffffffffffffffffffffffffffff81146111f257818110156111e4576040517f08c379a00000000000000000000000000000000000000000000000000000000081526004016111db9061203b565b60405180910390fd5b6111f18484848403610fa3565b5b50505050565b600073ffffffffffffffffffffffffffffffffffffffff168373ffffffffffffffffffffffffffffffffffffffff1603611267576040517f08c379a000000000000000000000000000000000000000000000000000000000815260040161125e906120cd565b60405180910390fd5b600073ffffffffffffffffffffffffffffffffffffffff168273ffffffffffffffffffffffffffffffffffffffff16036112d6576040517f08c379a00000000000000000000000000000000000000000000000000000000081526004016112cd9061215f565b60405180910390fd5b6112e183838361146e565b60008060008573ffffffffffffffffffffffffffffffffffffffff1673ffffffffffffffffffffffffffffffffffffffff16815260200190815260200160002054905081811015611367576040517f08c379a000000000000000000000000000000000000000000000000000000000815260040161135e906121f1565b60405180910390fd5b8181036000808673ffffffffffffffffffffffffffffffffffffffff1673ffffffffffffffffffffffffffffffffffffffff16815260200190815260200160002081905550816000808573ffffffffffffffffffffffffffffffffffffffff1673ffffffffffffffffffffffffffffffffffffffff168152602001908152602001600020600082825401925050819055508273ffffffffffffffffffffffffffffffffffffffff168473ffffffffffffffffffffffffffffffffffffffff167fddf252ad1be2c89b69c2b068fc378daa952ba7f163c4a11628f55a4df523b3ef8460405161145591906116ff565b60405180910390a3611468848484611473565b50505050565b505050565b505050565b600081519050919050565b600082825260208201905092915050565b60005b838110156114b2578082015181840152602081019050611497565b60008484015250505050565b6000601f19601f8301169050919050565b60006114da82611478565b6114e48185611483565b93506114f4818560208601611494565b6114fd816114be565b840191505092915050565b6000602082019050818103600083015261152281846114cf565b905092915050565b6000604051905090565b600080fd5b600080fd5b600073ffffffffffffffffffffffffffffffffffffffff82169050919050565b60006115698261153e565b9050919050565b6115798161155e565b811461158457600080fd5b50565b60008135905061159681611570565b92915050565b6000819050919050565b6115af8161159c565b81146115ba57600080fd5b50565b6000813590506115cc816115a6565b92915050565b600080604083850312156115e9576115e8611534565b5b60006115f785828601611587565b9250506020611608858286016115bd565b9150509250929050565b60008115159050919050565b61162781611612565b82525050565b6000602082019050611642600083018461161e565b92915050565b60006020828403121561165e5761165d611534565b5b600061166c848285016115bd565b91505092915050565b61167e8161159c565b82525050565b600061168f8261153e565b9050919050565b61169f81611684565b82525050565b600060a0820190506116ba6000830188611675565b81810360208301526116cc81876114cf565b90506116db6040830186611675565b6116e86060830185611675565b6116f56080830184611696565b9695505050505050565b60006020820190506117146000830184611675565b92915050565b60008060006060848603121561173357611732611534565b5b600061174186828701611587565b935050602061175286828701611587565b9250506040611763868287016115bd565b9150509250925092565b600060ff82169050919050565b6117838161176d565b82525050565b600060208201905061179e600083018461177a565b92915050565b6000602082840312156117ba576117b9611534565b5b60006117c884828501611587565b91505092915050565b600080fd5b600080fd5b7f4e487b7100000000000000000000000000000000000000000000000000000000600052604160045260246000fd5b611813826114be565b810181811067ffffffffffffffff82111715611832576118316117db565b5b80604052505050565b600061184561152a565b9050611851828261180a565b919050565b600067ffffffffffffffff821115611871576118706117db565b5b61187a826114be565b9050602081019050919050565b82818337600083830152505050565b60006118a96118a484611856565b61183b565b9050828152602081018484840111156118c5576118c46117d6565b5b6118d0848285611887565b509392505050565b600082601f8301126118ed576118ec6117d1565b5b81356118fd848260208601611896565b91505092915050565b60006020828403121561191c5761191b611534565b5b600082013567ffffffffffffffff81111561193a57611939611539565b5b611946848285016118d8565b91505092915050565b6000806040838503121561196657611965611534565b5b600061197485828601611587565b925050602061198585828601611587565b9150509250929050565b7f4e487b7100000000000000000000000000000000000000000000000000000000600052602260045260246000fd5b600060028204905060018216806119d657607f821691505b6020821081036119e9576119e861198f565b5b50919050565b7f4e487b7100000000000000000000000000000000000000000000000000000000600052601160045260246000fd5b6000611a298261159c565b9150611a348361159c565b9250828201905080821115611a4c57611a4b6119ef565b5b92915050565b60008190508160005260206000209050919050565b60006020601f8301049050919050565b600082821b905092915050565b600060088302611ab47fffffffffffffffffffffffffffffffffffffffffffffffffffffffffffffffff82611a77565b611abe8683611a77565b95508019841693508086168417925050509392505050565b6000819050919050565b6000611afb611af6611af18461159c565b611ad6565b61159c565b9050919050565b6000819050919050565b611b1583611ae0565b611b29611b2182611b02565b848454611a84565b825550505050565b600090565b611b3e611b31565b611b49818484611b0c565b505050565b5b81811015611b6d57611b62600082611b36565b600181019050611b4f565b5050565b601f821115611bb257611b8381611a52565b611b8c84611a67565b81016020851015611b9b578190505b611baf611ba785611a67565b830182611b4e565b50505b505050565b600082821c905092915050565b6000611bd560001984600802611bb7565b1980831691505092915050565b6000611bee8383611bc4565b9150826002028217905092915050565b611c0782611478565b67ffffffffffffffff811115611c2057611c1f6117db565b5b611c2a82546119be565b611c35828285611b71565b600060209050601f831160018114611c685760008415611c56578287015190505b611c608582611be2565b865550611cc8565b601f198416611c7686611a52565b60005b82811015611c9e57848901518255600182019150602085019450602081019050611c79565b86831015611cbb5784890151611cb7601f891682611bc4565b8355505b6001600288020188555050505b505050505050565b6000611ceb611ce6611ce18461153e565b611ad6565b61153e565b9050919050565b6000611cfd82611cd0565b9050919050565b6000611d0f82611cf2565b9050919050565b611d1f81611d04565b82525050565b6000606082019050611d3a6000830186611675565b611d476020830185611d16565b611d546040830184611d16565b949350505050565b7f45524332303a2064656372656173656420616c6c6f77616e63652062656c6f7760008201527f207a65726f000000000000000000000000000000000000000000000000000000602082015250565b6000611db8602583611483565b9150611dc382611d5c565b604082019050919050565b60006020820190508181036000830152611de781611dab565b9050919050565b6000611df98261159c565b91507fffffffffffffffffffffffffffffffffffffffffffffffffffffffffffffffff8203611e2b57611e2a6119ef565b5b600182019050919050565b6000819050919050565b6000611e5b611e56611e5184611e36565b611ad6565b61159c565b9050919050565b611e6b81611e40565b82525050565b600060a082019050611e866000830188611675565b8181036020830152611e9881876114cf565b9050611ea76040830186611e62565b611eb46060830185611e62565b611ec16080830184611696565b9695505050505050565b7f45524332303a20617070726f76652066726f6d20746865207a65726f2061646460008201527f7265737300000000000000000000000000000000000000000000000000000000602082015250565b6000611f27602483611483565b9150611f3282611ecb565b604082019050919050565b60006020820190508181036000830152611f5681611f1a565b9050919050565b7f45524332303a20617070726f766520746f20746865207a65726f20616464726560008201527f7373000000000000000000000000000000000000000000000000000000000000602082015250565b6000611fb9602283611483565b9150611fc482611f5d565b604082019050919050565b60006020820190508181036000830152611fe881611fac565b9050919050565b7f45524332303a20696e73756666696369656e7420616c6c6f77616e6365000000600082015250565b6000612025601d83611483565b915061203082611fef565b602082019050919050565b6000602082019050818103600083015261205481612018565b9050919050565b7f45524332303a207472616e736665722066726f6d20746865207a65726f20616460008201527f6472657373000000000000000000000000000000000000000000000000000000602082015250565b60006120b7602583611483565b91506120c28261205b565b604082019050919050565b600060208201905081810360008301526120e6816120aa565b9050919050565b7f45524332303a207472616e7366657220746f20746865207a65726f206164647260008201527f6573730000000000000000000000000000000000000000000000000000000000602082015250565b6000612149602383611483565b9150612154826120ed565b604082019050919050565b600060208201905081810360008301526121788161213c565b9050919050565b7f45524332303a207472616e7366657220616d6f756e742065786365656473206260008201527f616c616e63650000000000000000000000000000000000000000000000000000602082015250565b60006121db602683611483565b91506121e68261217f565b604082019050919050565b6000602082019050818103600083015261220a816121ce565b905091905056fea2646970667358221220b804194c05bfd9282eb24d2c6c18d33eab70a314e283fb18207319b5a3a3296b64736f6c63430008130033",
  "immutableReferences": {},
  "source": "pragma solidity >=0.4.22 <0.9.0;\r\nimport \"@openzeppelin/contracts/token/ERC20/ERC20.sol\";\r\n\r\ncontract SocialNetwork is ERC20{\r\n    string private _name;\r\n    string private _symbol;\r\n    \r\n    uint public postCount = 0;\r\n    mapping(uint => Post) public posts;\r\n    mapping(address => mapping(uint => bool)) public addressVotes;\r\n    struct Post{\r\n        uint id;\r\n        string content;\r\n        uint tipAmount;\r\n        uint vote;\r\n        address payable author;\r\n    }\r\n\r\n    event PostCreate(\r\n        uint id,\r\n        string content,\r\n        uint tipAmount,\r\n        uint vote,\r\n        address payable author\r\n    );\r\n\r\n    event PostTipped(\r\n        uint id,\r\n        string content,\r\n        uint tipAmount,\r\n        uint vote,\r\n        address payable author\r\n    );\r\n\r\n    event Vote(\r\n        uint id,\r\n        address authorPost,\r\n        address voter\r\n    );\r\n    constructor()ERC20(\"SocialNetwork\", \"SCC\") public{\r\n        _name = \"SocialNetwork\";\r\n        _symbol = \"SCC\";\r\n    }\r\n    \r\n\r\n    function createPost(string memory _content) public{\r\n        // require valid content\r\n        require(bytes(_content).length > 0);// if true continue excution \r\n        // Increment post\r\n        postCount++;\r\n        // create the post\r\n        address payable payable_addr = payable(msg.sender);\r\n        posts[postCount] = Post(postCount, _content, 0, 0, payable_addr);\r\n        // Trigger event\r\n        emit PostCreate(postCount, _content, 0, 0, payable_addr);\r\n    }\r\n\r\n    function tipPost(uint _id) public payable {\r\n        // make sure the id is valid\r\n        require(_id > 0 && _id <= postCount);\r\n    \r\n        // fetch the post\r\n        Post memory _post = posts[_id];\r\n        // fetch the author\r\n        address payable _author = _post.author;\r\n        address payable payable_addr = payable(_author);\r\n        // pay the author by sending them Ether\r\n        payable_addr.transfer(msg.value); // send and transfer just Object address payable not address\r\n        // Incremet the tip amount\r\n        _post.tipAmount = _post.tipAmount + msg.value;\r\n        // update the post\r\n        posts[_id] = _post;\r\n        // trigger event\r\n        emit PostTipped(postCount, _post.content, _post.tipAmount,_post.vote, _author);\r\n    }\r\n\r\n    function votePost(uint _id) public{\r\n        require(_id > 0 && _id <= postCount);\r\n        address payable voter = payable(msg.sender); \r\n        require(addressVotes[voter][_id] == false);\r\n        Post memory _post = posts[_id];\r\n\r\n        _post.vote = _post.vote + 1;\r\n        \r\n        posts[_id] = _post;\r\n        addressVotes[voter][_id] = true;\r\n\r\n        emit Vote(_post.id,_post.author, voter);\r\n    }\r\n\r\n//     var contract = new web3.eth.Contract(abi, contractAddress);\r\n\r\n// contract.events.Vote()\r\n//     .on('data', function(event){\r\n//         console.log(\"ID: \" + event.returnValues.id);\r\n//         console.log(\"Author: \" + event.returnValues.author);\r\n//     })\r\n//     .on('error', console.error);\r\n\r\n}",
  "sourcePath": "D:\\Code\\DL2\\social-network\\src\\contracts\\SocialNetwork.sol",
  "compiler": {
    "name": "solc",
    "version": "0.8.19+commit.7dd6d404.Emscripten.clang"
  },
  "schemaVersion": "3.4.11",
  "updatedAt": "2023-04-13T12:16:02.695Z",
  "networkType": "ethereum",
  "devdoc": {
    "events": {
      "Approval(address,address,uint256)": {
        "details": "Emitted when the allowance of a `spender` for an `owner` is set by a call to {approve}. `value` is the new allowance."
      },
      "Transfer(address,address,uint256)": {
        "details": "Emitted when `value` tokens are moved from one account (`from`) to another (`to`). Note that `value` may be zero."
      }
    },
    "kind": "dev",
    "methods": {
      "allowance(address,address)": {
        "details": "See {IERC20-allowance}."
      },
      "approve(address,uint256)": {
        "details": "See {IERC20-approve}. NOTE: If `amount` is the maximum `uint256`, the allowance is not updated on `transferFrom`. This is semantically equivalent to an infinite approval. Requirements: - `spender` cannot be the zero address."
      },
      "balanceOf(address)": {
        "details": "See {IERC20-balanceOf}."
      },
      "decimals()": {
        "details": "Returns the number of decimals used to get its user representation. For example, if `decimals` equals `2`, a balance of `505` tokens should be displayed to a user as `5.05` (`505 / 10 ** 2`). Tokens usually opt for a value of 18, imitating the relationship between Ether and Wei. This is the value {ERC20} uses, unless this function is overridden; NOTE: This information is only used for _display_ purposes: it in no way affects any of the arithmetic of the contract, including {IERC20-balanceOf} and {IERC20-transfer}."
      },
      "decreaseAllowance(address,uint256)": {
        "details": "Atomically decreases the allowance granted to `spender` by the caller. This is an alternative to {approve} that can be used as a mitigation for problems described in {IERC20-approve}. Emits an {Approval} event indicating the updated allowance. Requirements: - `spender` cannot be the zero address. - `spender` must have allowance for the caller of at least `subtractedValue`."
      },
      "increaseAllowance(address,uint256)": {
        "details": "Atomically increases the allowance granted to `spender` by the caller. This is an alternative to {approve} that can be used as a mitigation for problems described in {IERC20-approve}. Emits an {Approval} event indicating the updated allowance. Requirements: - `spender` cannot be the zero address."
      },
      "name()": {
        "details": "Returns the name of the token."
      },
      "symbol()": {
        "details": "Returns the symbol of the token, usually a shorter version of the name."
      },
      "totalSupply()": {
        "details": "See {IERC20-totalSupply}."
      },
      "transfer(address,uint256)": {
        "details": "See {IERC20-transfer}. Requirements: - `to` cannot be the zero address. - the caller must have a balance of at least `amount`."
      },
      "transferFrom(address,address,uint256)": {
        "details": "See {IERC20-transferFrom}. Emits an {Approval} event indicating the updated allowance. This is not required by the EIP. See the note at the beginning of {ERC20}. NOTE: Does not update the allowance if the current allowance is the maximum `uint256`. Requirements: - `from` and `to` cannot be the zero address. - `from` must have a balance of at least `amount`. - the caller must have allowance for ``from``'s tokens of at least `amount`."
      }
    },
    "version": 1
  },
  "userdoc": {
    "kind": "user",
    "methods": {},
    "version": 1
  }
}