{
  "contractName": "TokenSCN",
  "abi": [
    {
      "inputs": [
        {
          "internalType": "string",
          "name": "name",
          "type": "string"
        },
        {
          "internalType": "string",
          "name": "symbol",
          "type": "string"
        },
        {
          "internalType": "uint8",
          "name": "decimals",
          "type": "uint8"
        },
        {
          "internalType": "uint256",
          "name": "totalSupply",
          "type": "uint256"
        }
      ],
      "stateMutability": "nonpayable",
      "type": "constructor"
    },
    {
      "anonymous": false,
      "inputs": [
        {
          "indexed": true,
          "internalType": "address",
          "name": "owner",
          "type": "address"
        },
        {
          "indexed": true,
          "internalType": "address",
          "name": "spender",
          "type": "address"
        },
        {
          "indexed": false,
          "internalType": "uint256",
          "name": "value",
          "type": "uint256"
        }
      ],
      "name": "Approval",
      "type": "event"
    },
    {
      "anonymous": false,
      "inputs": [
        {
          "indexed": true,
          "internalType": "address",
          "name": "from",
          "type": "address"
        },
        {
          "indexed": true,
          "internalType": "address",
          "name": "to",
          "type": "address"
        },
        {
          "indexed": false,
          "internalType": "uint256",
          "name": "value",
          "type": "uint256"
        }
      ],
      "name": "Transfer",
      "type": "event"
    },
    {
      "inputs": [],
      "name": "name",
      "outputs": [
        {
          "internalType": "string",
          "name": "",
          "type": "string"
        }
      ],
      "stateMutability": "view",
      "type": "function",
      "constant": true
    },
    {
      "inputs": [],
      "name": "symbol",
      "outputs": [
        {
          "internalType": "string",
          "name": "",
          "type": "string"
        }
      ],
      "stateMutability": "view",
      "type": "function",
      "constant": true
    },
    {
      "inputs": [],
      "name": "decimals",
      "outputs": [
        {
          "internalType": "uint8",
          "name": "",
          "type": "uint8"
        }
      ],
      "stateMutability": "view",
      "type": "function",
      "constant": true
    },
    {
      "inputs": [],
      "name": "totalSupply",
      "outputs": [
        {
          "internalType": "uint256",
          "name": "",
          "type": "uint256"
        }
      ],
      "stateMutability": "view",
      "type": "function",
      "constant": true
    },
    {
      "inputs": [
        {
          "internalType": "address",
          "name": "to",
          "type": "address"
        },
        {
          "internalType": "uint256",
          "name": "value",
          "type": "uint256"
        }
      ],
      "name": "transfer",
      "outputs": [
        {
          "internalType": "bool",
          "name": "",
          "type": "bool"
        }
      ],
      "stateMutability": "nonpayable",
      "type": "function"
    },
    {
      "inputs": [
        {
          "internalType": "address",
          "name": "owner",
          "type": "address"
        }
      ],
      "name": "balanceOf",
      "outputs": [
        {
          "internalType": "uint256",
          "name": "balance",
          "type": "uint256"
        }
      ],
      "stateMutability": "view",
      "type": "function",
      "constant": true
    },
    {
      "inputs": [
        {
          "internalType": "address",
          "name": "from",
          "type": "address"
        },
        {
          "internalType": "address",
          "name": "to",
          "type": "address"
        },
        {
          "internalType": "uint256",
          "name": "value",
          "type": "uint256"
        }
      ],
      "name": "transferFrom",
      "outputs": [
        {
          "internalType": "bool",
          "name": "",
          "type": "bool"
        }
      ],
      "stateMutability": "nonpayable",
      "type": "function"
    },
    {
      "inputs": [
        {
          "internalType": "address",
          "name": "spender",
          "type": "address"
        },
        {
          "internalType": "uint256",
          "name": "value",
          "type": "uint256"
        }
      ],
      "name": "approve",
      "outputs": [
        {
          "internalType": "bool",
          "name": "",
          "type": "bool"
        }
      ],
      "stateMutability": "nonpayable",
      "type": "function"
    },
    {
      "inputs": [
        {
          "internalType": "address",
          "name": "owner",
          "type": "address"
        },
        {
          "internalType": "address",
          "name": "spender",
          "type": "address"
        }
      ],
      "name": "allowance",
      "outputs": [
        {
          "internalType": "uint256",
          "name": "",
          "type": "uint256"
        }
      ],
      "stateMutability": "view",
      "type": "function",
      "constant": true
    },
    {
      "inputs": [
        {
          "internalType": "address",
          "name": "spender",
          "type": "address"
        },
        {
          "internalType": "uint256",
          "name": "addedValue",
          "type": "uint256"
        }
      ],
      "name": "increaseApproval",
      "outputs": [
        {
          "internalType": "bool",
          "name": "",
          "type": "bool"
        }
      ],
      "stateMutability": "nonpayable",
      "type": "function"
    },
    {
      "inputs": [
        {
          "internalType": "address",
          "name": "spender",
          "type": "address"
        },
        {
          "internalType": "uint256",
          "name": "subtractedValue",
          "type": "uint256"
        }
      ],
      "name": "decreaseApproval",
      "outputs": [
        {
          "internalType": "bool",
          "name": "",
          "type": "bool"
        }
      ],
      "stateMutability": "nonpayable",
      "type": "function"
    }
  ],
  "bytecode": "0x60806040523480156200001157600080fd5b5060405162001b3138038062001b318339818101604052810190620000379190620002d7565b8260019081620000489190620005c8565b5083600090816200005a9190620005c8565b5081600260006101000a81548160ff021916908360ff1602179055508060038190555080600460003373ffffffffffffffffffffffffffffffffffffffff1673ffffffffffffffffffffffffffffffffffffffff1681526020019081526020016000208190555050505050620006af565b6000604051905090565b600080fd5b600080fd5b600080fd5b600080fd5b6000601f19601f8301169050919050565b7f4e487b7100000000000000000000000000000000000000000000000000000000600052604160045260246000fd5b6200013482620000e9565b810181811067ffffffffffffffff82111715620001565762000155620000fa565b5b80604052505050565b60006200016b620000cb565b905062000179828262000129565b919050565b600067ffffffffffffffff8211156200019c576200019b620000fa565b5b620001a782620000e9565b9050602081019050919050565b60005b83811015620001d4578082015181840152602081019050620001b7565b60008484015250505050565b6000620001f7620001f1846200017e565b6200015f565b905082815260208101848484011115620002165762000215620000e4565b5b62000223848285620001b4565b509392505050565b600082601f830112620002435762000242620000df565b5b815162000255848260208601620001e0565b91505092915050565b600060ff82169050919050565b62000276816200025e565b81146200028257600080fd5b50565b60008151905062000296816200026b565b92915050565b6000819050919050565b620002b1816200029c565b8114620002bd57600080fd5b50565b600081519050620002d181620002a6565b92915050565b60008060008060808587031215620002f457620002f3620000d5565b5b600085015167ffffffffffffffff811115620003155762000314620000da565b5b62000323878288016200022b565b945050602085015167ffffffffffffffff811115620003475762000346620000da565b5b62000355878288016200022b565b9350506040620003688782880162000285565b92505060606200037b87828801620002c0565b91505092959194509250565b600081519050919050565b7f4e487b7100000000000000000000000000000000000000000000000000000000600052602260045260246000fd5b60006002820490506001821680620003da57607f821691505b602082108103620003f057620003ef62000392565b5b50919050565b60008190508160005260206000209050919050565b60006020601f8301049050919050565b600082821b905092915050565b6000600883026200045a7fffffffffffffffffffffffffffffffffffffffffffffffffffffffffffffffff826200041b565b6200046686836200041b565b95508019841693508086168417925050509392505050565b6000819050919050565b6000620004a9620004a36200049d846200029c565b6200047e565b6200029c565b9050919050565b6000819050919050565b620004c58362000488565b620004dd620004d482620004b0565b84845462000428565b825550505050565b600090565b620004f4620004e5565b62000501818484620004ba565b505050565b5b8181101562000529576200051d600082620004ea565b60018101905062000507565b5050565b601f82111562000578576200054281620003f6565b6200054d846200040b565b810160208510156200055d578190505b620005756200056c856200040b565b83018262000506565b50505b505050565b600082821c905092915050565b60006200059d600019846008026200057d565b1980831691505092915050565b6000620005b883836200058a565b9150826002028217905092915050565b620005d38262000387565b67ffffffffffffffff811115620005ef57620005ee620000fa565b5b620005fb8254620003c1565b620006088282856200052d565b600060209050601f8311600181146200064057600084156200062b578287015190505b620006378582620005aa565b865550620006a7565b601f1984166200065086620003f6565b60005b828110156200067a5784890151825560018201915060208501945060208101905062000653565b868310156200069a578489015162000696601f8916826200058a565b8355505b6001600288020188555050505b505050505050565b61147280620006bf6000396000f3fe608060405234801561001057600080fd5b50600436106100a95760003560e01c80636618846311610071578063661884631461016857806370a082311461019857806395d89b41146101c8578063a9059cbb146101e6578063d73dd62314610216578063dd62ed3e14610246576100a9565b806306fdde03146100ae578063095ea7b3146100cc57806318160ddd146100fc57806323b872dd1461011a578063313ce5671461014a575b600080fd5b6100b6610276565b6040516100c391906110c4565b60405180910390f35b6100e660048036038101906100e1919061117f565b610308565b6040516100f391906111da565b60405180910390f35b6101046103fa565b6040516101119190611204565b60405180910390f35b610134600480360381019061012f919061121f565b610404565b60405161014191906111da565b60405180910390f35b6101526107bc565b60405161015f919061128e565b60405180910390f35b610182600480360381019061017d919061117f565b6107d3565b60405161018f91906111da565b60405180910390f35b6101b260048036038101906101ad91906112a9565b610a64565b6040516101bf9190611204565b60405180910390f35b6101d0610aad565b6040516101dd91906110c4565b60405180910390f35b61020060048036038101906101fb919061117f565b610b3f565b60405161020d91906111da565b60405180910390f35b610230600480360381019061022b919061117f565b610d5e565b60405161023d91906111da565b60405180910390f35b610260600480360381019061025b91906112d6565b610f5a565b60405161026d9190611204565b60405180910390f35b60606000805461028590611345565b80601f01602080910402602001604051908101604052809291908181526020018280546102b190611345565b80156102fe5780601f106102d3576101008083540402835291602001916102fe565b820191906000526020600020905b8154815290600101906020018083116102e157829003601f168201915b5050505050905090565b600081600560003373ffffffffffffffffffffffffffffffffffffffff1673ffffffffffffffffffffffffffffffffffffffff16815260200190815260200160002060008573ffffffffffffffffffffffffffffffffffffffff1673ffffffffffffffffffffffffffffffffffffffff168152602001908152602001600020819055508273ffffffffffffffffffffffffffffffffffffffff163373ffffffffffffffffffffffffffffffffffffffff167f8c5be1e5ebec7d5bd14f71427d1e84f3dd0314c0f7b2291e5b200ac8c7c3b925846040516103e89190611204565b60405180910390a36001905092915050565b6000600354905090565b60008073ffffffffffffffffffffffffffffffffffffffff168373ffffffffffffffffffffffffffffffffffffffff160361043e57600080fd5b600460008573ffffffffffffffffffffffffffffffffffffffff1673ffffffffffffffffffffffffffffffffffffffff1681526020019081526020016000205482111561048a57600080fd5b600560008573ffffffffffffffffffffffffffffffffffffffff1673ffffffffffffffffffffffffffffffffffffffff16815260200190815260200160002060003373ffffffffffffffffffffffffffffffffffffffff1673ffffffffffffffffffffffffffffffffffffffff1681526020019081526020016000205482111561051357600080fd5b61056582600460008773ffffffffffffffffffffffffffffffffffffffff1673ffffffffffffffffffffffffffffffffffffffff16815260200190815260200160002054610fe190919063ffffffff16565b600460008673ffffffffffffffffffffffffffffffffffffffff1673ffffffffffffffffffffffffffffffffffffffff168152602001908152602001600020819055506105fa82600460008673ffffffffffffffffffffffffffffffffffffffff1673ffffffffffffffffffffffffffffffffffffffff1681526020019081526020016000205461100890919063ffffffff16565b600460008573ffffffffffffffffffffffffffffffffffffffff1673ffffffffffffffffffffffffffffffffffffffff168152602001908152602001600020819055506106cc82600560008773ffffffffffffffffffffffffffffffffffffffff1673ffffffffffffffffffffffffffffffffffffffff16815260200190815260200160002060003373ffffffffffffffffffffffffffffffffffffffff1673ffffffffffffffffffffffffffffffffffffffff16815260200190815260200160002054610fe190919063ffffffff16565b600560008673ffffffffffffffffffffffffffffffffffffffff1673ffffffffffffffffffffffffffffffffffffffff16815260200190815260200160002060003373ffffffffffffffffffffffffffffffffffffffff1673ffffffffffffffffffffffffffffffffffffffff168152602001908152602001600020819055508273ffffffffffffffffffffffffffffffffffffffff168473ffffffffffffffffffffffffffffffffffffffff167fddf252ad1be2c89b69c2b068fc378daa952ba7f163c4a11628f55a4df523b3ef846040516107a99190611204565b60405180910390a3600190509392505050565b6000600260009054906101000a900460ff16905090565b600080600560003373ffffffffffffffffffffffffffffffffffffffff1673ffffffffffffffffffffffffffffffffffffffff16815260200190815260200160002060008573ffffffffffffffffffffffffffffffffffffffff1673ffffffffffffffffffffffffffffffffffffffff168152602001908152602001600020549050808311156108e4576000600560003373ffffffffffffffffffffffffffffffffffffffff1673ffffffffffffffffffffffffffffffffffffffff16815260200190815260200160002060008673ffffffffffffffffffffffffffffffffffffffff1673ffffffffffffffffffffffffffffffffffffffff16815260200190815260200160002081905550610978565b6108f78382610fe190919063ffffffff16565b600560003373ffffffffffffffffffffffffffffffffffffffff1673ffffffffffffffffffffffffffffffffffffffff16815260200190815260200160002060008673ffffffffffffffffffffffffffffffffffffffff1673ffffffffffffffffffffffffffffffffffffffff168152602001908152602001600020819055505b8373ffffffffffffffffffffffffffffffffffffffff163373ffffffffffffffffffffffffffffffffffffffff167f8c5be1e5ebec7d5bd14f71427d1e84f3dd0314c0f7b2291e5b200ac8c7c3b925600560003373ffffffffffffffffffffffffffffffffffffffff1673ffffffffffffffffffffffffffffffffffffffff16815260200190815260200160002060008873ffffffffffffffffffffffffffffffffffffffff1673ffffffffffffffffffffffffffffffffffffffff16815260200190815260200160002054604051610a519190611204565b60405180910390a3600191505092915050565b6000600460008373ffffffffffffffffffffffffffffffffffffffff1673ffffffffffffffffffffffffffffffffffffffff168152602001908152602001600020549050919050565b606060018054610abc90611345565b80601f0160208091040260200160405190810160405280929190818152602001828054610ae890611345565b8015610b355780601f10610b0a57610100808354040283529160200191610b35565b820191906000526020600020905b815481529060010190602001808311610b1857829003601f168201915b5050505050905090565b60008073ffffffffffffffffffffffffffffffffffffffff168373ffffffffffffffffffffffffffffffffffffffff1603610b7957600080fd5b600460003373ffffffffffffffffffffffffffffffffffffffff1673ffffffffffffffffffffffffffffffffffffffff16815260200190815260200160002054821115610bc557600080fd5b610c1782600460003373ffffffffffffffffffffffffffffffffffffffff1673ffffffffffffffffffffffffffffffffffffffff16815260200190815260200160002054610fe190919063ffffffff16565b600460003373ffffffffffffffffffffffffffffffffffffffff1673ffffffffffffffffffffffffffffffffffffffff16815260200190815260200160002081905550610cac82600460008673ffffffffffffffffffffffffffffffffffffffff1673ffffffffffffffffffffffffffffffffffffffff1681526020019081526020016000205461100890919063ffffffff16565b600460008573ffffffffffffffffffffffffffffffffffffffff1673ffffffffffffffffffffffffffffffffffffffff168152602001908152602001600020819055508273ffffffffffffffffffffffffffffffffffffffff163373ffffffffffffffffffffffffffffffffffffffff167fddf252ad1be2c89b69c2b068fc378daa952ba7f163c4a11628f55a4df523b3ef84604051610d4c9190611204565b60405180910390a36001905092915050565b6000610def82600560003373ffffffffffffffffffffffffffffffffffffffff1673ffffffffffffffffffffffffffffffffffffffff16815260200190815260200160002060008673ffffffffffffffffffffffffffffffffffffffff1673ffffffffffffffffffffffffffffffffffffffff1681526020019081526020016000205461100890919063ffffffff16565b600560003373ffffffffffffffffffffffffffffffffffffffff1673ffffffffffffffffffffffffffffffffffffffff16815260200190815260200160002060008573ffffffffffffffffffffffffffffffffffffffff1673ffffffffffffffffffffffffffffffffffffffff168152602001908152602001600020819055508273ffffffffffffffffffffffffffffffffffffffff163373ffffffffffffffffffffffffffffffffffffffff167f8c5be1e5ebec7d5bd14f71427d1e84f3dd0314c0f7b2291e5b200ac8c7c3b925600560003373ffffffffffffffffffffffffffffffffffffffff1673ffffffffffffffffffffffffffffffffffffffff16815260200190815260200160002060008773ffffffffffffffffffffffffffffffffffffffff1673ffffffffffffffffffffffffffffffffffffffff16815260200190815260200160002054604051610f489190611204565b60405180910390a36001905092915050565b6000600560008473ffffffffffffffffffffffffffffffffffffffff1673ffffffffffffffffffffffffffffffffffffffff16815260200190815260200160002060008373ffffffffffffffffffffffffffffffffffffffff1673ffffffffffffffffffffffffffffffffffffffff16815260200190815260200160002054905092915050565b600082821115610ff457610ff3611376565b5b818361100091906113d4565b905092915050565b60008082846110179190611408565b90508381101561102a57611029611376565b5b8091505092915050565b600081519050919050565b600082825260208201905092915050565b60005b8381101561106e578082015181840152602081019050611053565b60008484015250505050565b6000601f19601f8301169050919050565b600061109682611034565b6110a0818561103f565b93506110b0818560208601611050565b6110b98161107a565b840191505092915050565b600060208201905081810360008301526110de818461108b565b905092915050565b600080fd5b600073ffffffffffffffffffffffffffffffffffffffff82169050919050565b6000611116826110eb565b9050919050565b6111268161110b565b811461113157600080fd5b50565b6000813590506111438161111d565b92915050565b6000819050919050565b61115c81611149565b811461116757600080fd5b50565b60008135905061117981611153565b92915050565b60008060408385031215611196576111956110e6565b5b60006111a485828601611134565b92505060206111b58582860161116a565b9150509250929050565b60008115159050919050565b6111d4816111bf565b82525050565b60006020820190506111ef60008301846111cb565b92915050565b6111fe81611149565b82525050565b600060208201905061121960008301846111f5565b92915050565b600080600060608486031215611238576112376110e6565b5b600061124686828701611134565b935050602061125786828701611134565b92505060406112688682870161116a565b9150509250925092565b600060ff82169050919050565b61128881611272565b82525050565b60006020820190506112a3600083018461127f565b92915050565b6000602082840312156112bf576112be6110e6565b5b60006112cd84828501611134565b91505092915050565b600080604083850312156112ed576112ec6110e6565b5b60006112fb85828601611134565b925050602061130c85828601611134565b9150509250929050565b7f4e487b7100000000000000000000000000000000000000000000000000000000600052602260045260246000fd5b6000600282049050600182168061135d57607f821691505b6020821081036113705761136f611316565b5b50919050565b7f4e487b7100000000000000000000000000000000000000000000000000000000600052600160045260246000fd5b7f4e487b7100000000000000000000000000000000000000000000000000000000600052601160045260246000fd5b60006113df82611149565b91506113ea83611149565b9250828203905081811115611402576114016113a5565b5b92915050565b600061141382611149565b915061141e83611149565b9250828201905080821115611436576114356113a5565b5b9291505056fea2646970667358221220be24928dd8cd8a563f24313b9d4b42ec7ac3b526cc5b17aec6183ad811be61d664736f6c63430008130033",
  "immutableReferences": {},
  "source": "pragma solidity >=0.4.22 <0.9.0;\r\n\r\nimport './SafeMath.sol';\r\nimport './ERC20.sol';\r\n\r\ncontract TokenSCN is ERC20 {\r\n\r\n    using SafeMath for uint256;\r\n\r\n    string private _name;\r\n    string private _symbol;\r\n    uint8 private _decimals;\r\n    uint256 private _totalSupply;\r\n\r\n    mapping (address => uint256) private _balances;\r\n    mapping (address => mapping (address => uint256)) private _allowed;\r\n\r\n    constructor(string memory name, string memory symbol, uint8 decimals, uint256 totalSupply) public {\r\n        _symbol = symbol;\r\n        _name = name;\r\n        _decimals = decimals;\r\n        _totalSupply = totalSupply;\r\n        _balances[msg.sender] = totalSupply;\r\n    }\r\n\r\n    function name() public view returns (string memory) {\r\n        return _name;\r\n    }\r\n\r\n    function symbol() public view returns (string memory) {\r\n        return _symbol;\r\n    }\r\n\r\n    function decimals() public view returns (uint8) {\r\n        return _decimals;\r\n    }\r\n\r\n    function totalSupply() public view returns (uint256) {\r\n        return _totalSupply;\r\n    }\r\n\r\n    function transfer(address to, uint256 value) public returns (bool) {\r\n        require(to != address(0));\r\n        require(value <= _balances[msg.sender]);\r\n        _balances[msg.sender] = _balances[msg.sender].sub(value);\r\n        _balances[to] = _balances[to].add(value);\r\n        emit Transfer(msg.sender, to, value);\r\n        return true;\r\n    }\r\n\r\n    function balanceOf(address owner) public view returns (uint256 balance) {\r\n        return _balances[owner];\r\n    }\r\n\r\n    function transferFrom(address from, address to, uint256 value) public returns (bool) {\r\n        require(to != address(0));\r\n        require(value <= _balances[from]);\r\n        require(value <= _allowed[from][msg.sender]);\r\n\r\n        _balances[from] = _balances[from].sub(value);\r\n        _balances[to] = _balances[to].add(value);\r\n        _allowed[from][msg.sender] = _allowed[from][msg.sender].sub(value);\r\n        emit Transfer(from, to, value);\r\n        return true;\r\n    }\r\n\r\n    function approve(address spender, uint256 value) public returns (bool) {\r\n        _allowed[msg.sender][spender] = value;\r\n        emit Approval(msg.sender, spender, value);\r\n        return true;\r\n    }\r\n\r\n    function allowance(address owner, address spender) public view returns (uint256) {\r\n        return _allowed[owner][spender];\r\n    }\r\n\r\n    function increaseApproval(address spender, uint256 addedValue) public returns (bool) {\r\n        _allowed[msg.sender][spender] = _allowed[msg.sender][spender].add(addedValue);\r\n        emit Approval(msg.sender, spender, _allowed[msg.sender][spender]);\r\n        return true;\r\n    }\r\n\r\n    function decreaseApproval(address spender, uint256 subtractedValue) public returns (bool) {\r\n        uint256 oldValue = _allowed[msg.sender][spender];\r\n        if (subtractedValue > oldValue) {\r\n            _allowed[msg.sender][spender] = 0;\r\n        } else {\r\n            _allowed[msg.sender][spender] = oldValue.sub(subtractedValue);\r\n        }\r\n        emit Approval(msg.sender, spender, _allowed[msg.sender][spender]);\r\n        return true;\r\n    }\r\n}\r\n",
  "sourcePath": "D:\\Code\\DL2\\social-network\\src\\contracts\\TokenSCN.sol",
  "compiler": {
    "name": "solc",
    "version": "0.8.19+commit.7dd6d404.Emscripten.clang"
  },
  "schemaVersion": "3.4.11",
  "updatedAt": "2023-04-13T12:16:04.545Z",
  "networkType": "ethereum",
  "devdoc": {
    "kind": "dev",
    "methods": {},
    "version": 1
  },
  "userdoc": {
    "kind": "user",
    "methods": {},
    "version": 1
  }
}